{
  "contractName": "AirplaneManagement",
  "abi": [
    {
      "inputs": [
        {
          "internalType": "uint256",
          "name": "",
          "type": "uint256"
        }
      ],
      "name": "flights",
      "outputs": [
        {
          "internalType": "string",
          "name": "flightName",
          "type": "string"
        },
        {
          "internalType": "bool",
          "name": "hasDeparted",
          "type": "bool"
        }
      ],
      "stateMutability": "view",
      "type": "function",
      "constant": true
    },
    {
      "inputs": [
        {
          "internalType": "uint256",
          "name": "_flightId",
          "type": "uint256"
        },
        {
          "internalType": "string",
          "name": "_flightName",
          "type": "string"
        }
      ],
      "name": "scheduleFlight",
      "outputs": [],
      "stateMutability": "nonpayable",
      "type": "function"
    },
    {
      "inputs": [
        {
          "internalType": "uint256",
          "name": "_flightId",
          "type": "uint256"
        }
      ],
      "name": "departFlight",
      "outputs": [],
      "stateMutability": "nonpayable",
      "type": "function"
    },
    {
      "inputs": [
        {
          "internalType": "uint256",
          "name": "_flightId",
          "type": "uint256"
        }
      ],
      "name": "cancelFlight",
      "outputs": [],
      "stateMutability": "nonpayable",
      "type": "function"
    }
  ],
  "bytecode": "0x608060405234801561000f575f80fd5b50610c8e8061001d5f395ff3fe608060405234801561000f575f80fd5b506004361061004a575f3560e01c806315ccf70f1461004e5780635f34dd4a1461007f5780638af65ab21461009b578063bb508789146100b7575b5f80fd5b610068600480360381019061006391906104d7565b6100d3565b6040516100769291906105a6565b60405180910390f35b61009960048036038101906100949190610700565b610184565b005b6100b560048036038101906100b091906104d7565b610288565b005b6100d160048036038101906100cc91906104d7565b61037f565b005b5f602052805f5260405f205f91509050805f0180546100f190610787565b80601f016020809104026020016040519081016040528092919081815260200182805461011d90610787565b80156101685780601f1061013f57610100808354040283529160200191610168565b820191905f5260205f20905b81548152906001019060200180831161014b57829003601f168201915b505050505090806001015f9054906101000a900460ff16905082565b5f8151116101c7576040517f08c379a00000000000000000000000000000000000000000000000000000000081526004016101be90610801565b60405180910390fd5b5f805f8481526020019081526020015f205f0180546101e590610787565b905014610227576040517f08c379a000000000000000000000000000000000000000000000000000000000815260040161021e90610869565b60405180910390fd5b60405180604001604052808281526020015f15158152505f808481526020019081526020015f205f820151815f0190816102619190610a24565b506020820151816001015f6101000a81548160ff0219169083151502179055509050505050565b5f805f8381526020019081526020015f205f0180546102a690610787565b9050036102e8576040517f08c379a00000000000000000000000000000000000000000000000000000000081526004016102df90610b3d565b60405180910390fd5b5f808281526020019081526020015f206001015f9054906101000a900460ff1615610348576040517f08c379a000000000000000000000000000000000000000000000000000000000815260040161033f90610ba5565b60405180910390fd5b5f808281526020019081526020015f205f8082015f610367919061043b565b600182015f6101000a81549060ff0219169055505050565b5f808281526020019081526020015f206001015f9054906101000a900460ff16156103df576040517f08c379a00000000000000000000000000000000000000000000000000000000081526004016103d690610c0d565b60405180910390fd5b5f805f8381526020019081526020015f205f0180546103fd90610787565b90501161040d5761040c610c2b565b5b60015f808381526020019081526020015f206001015f6101000a81548160ff02191690831515021790555050565b50805461044790610787565b5f825580601f106104585750610475565b601f0160209004905f5260205f20908101906104749190610478565b5b50565b5b8082111561048f575f815f905550600101610479565b5090565b5f604051905090565b5f80fd5b5f80fd5b5f819050919050565b6104b6816104a4565b81146104c0575f80fd5b50565b5f813590506104d1816104ad565b92915050565b5f602082840312156104ec576104eb61049c565b5b5f6104f9848285016104c3565b91505092915050565b5f81519050919050565b5f82825260208201905092915050565b5f5b8381101561053957808201518184015260208101905061051e565b5f8484015250505050565b5f601f19601f8301169050919050565b5f61055e82610502565b610568818561050c565b935061057881856020860161051c565b61058181610544565b840191505092915050565b5f8115159050919050565b6105a08161058c565b82525050565b5f6040820190508181035f8301526105be8185610554565b90506105cd6020830184610597565b9392505050565b5f80fd5b5f80fd5b7f4e487b71000000000000000000000000000000000000000000000000000000005f52604160045260245ffd5b61061282610544565b810181811067ffffffffffffffff82111715610631576106306105dc565b5b80604052505050565b5f610643610493565b905061064f8282610609565b919050565b5f67ffffffffffffffff82111561066e5761066d6105dc565b5b61067782610544565b9050602081019050919050565b828183375f83830152505050565b5f6106a461069f84610654565b61063a565b9050828152602081018484840111156106c0576106bf6105d8565b5b6106cb848285610684565b509392505050565b5f82601f8301126106e7576106e66105d4565b5b81356106f7848260208601610692565b91505092915050565b5f80604083850312156107165761071561049c565b5b5f610723858286016104c3565b925050602083013567ffffffffffffffff811115610744576107436104a0565b5b610750858286016106d3565b9150509250929050565b7f4e487b71000000000000000000000000000000000000000000000000000000005f52602260045260245ffd5b5f600282049050600182168061079e57607f821691505b6020821081036107b1576107b061075a565b5b50919050565b7f466c69676874206e616d652063616e6e6f7420626520656d70747900000000005f82015250565b5f6107eb601b8361050c565b91506107f6826107b7565b602082019050919050565b5f6020820190508181035f830152610818816107df565b9050919050565b7f466c6967687420616c7265616479207363686564756c656400000000000000005f82015250565b5f61085360188361050c565b915061085e8261081f565b602082019050919050565b5f6020820190508181035f83015261088081610847565b9050919050565b5f819050815f5260205f209050919050565b5f6020601f8301049050919050565b5f82821b905092915050565b5f600883026108e37fffffffffffffffffffffffffffffffffffffffffffffffffffffffffffffffff826108a8565b6108ed86836108a8565b95508019841693508086168417925050509392505050565b5f819050919050565b5f61092861092361091e846104a4565b610905565b6104a4565b9050919050565b5f819050919050565b6109418361090e565b61095561094d8261092f565b8484546108b4565b825550505050565b5f90565b61096961095d565b610974818484610938565b505050565b5b818110156109975761098c5f82610961565b60018101905061097a565b5050565b601f8211156109dc576109ad81610887565b6109b684610899565b810160208510156109c5578190505b6109d96109d185610899565b830182610979565b50505b505050565b5f82821c905092915050565b5f6109fc5f19846008026109e1565b1980831691505092915050565b5f610a1483836109ed565b9150826002028217905092915050565b610a2d82610502565b67ffffffffffffffff811115610a4657610a456105dc565b5b610a508254610787565b610a5b82828561099b565b5f60209050601f831160018114610a8c575f8415610a7a578287015190505b610a848582610a09565b865550610aeb565b601f198416610a9a86610887565b5f5b82811015610ac157848901518255600182019150602085019450602081019050610a9c565b86831015610ade5784890151610ada601f8916826109ed565b8355505b6001600288020188555050505b505050505050565b7f466c6967687420646f6573206e6f7420657869737400000000000000000000005f82015250565b5f610b2760158361050c565b9150610b3282610af3565b602082019050919050565b5f6020820190508181035f830152610b5481610b1b565b9050919050565b7f43616e6e6f742063616e63656c206120646570617274656420666c69676874005f82015250565b5f610b8f601f8361050c565b9150610b9a82610b5b565b602082019050919050565b5f6020820190508181035f830152610bbc81610b83565b9050919050565b7f466c696768742068617320616c726561647920646570617274656400000000005f82015250565b5f610bf7601b8361050c565b9150610c0282610bc3565b602082019050919050565b5f6020820190508181035f830152610c2481610beb565b9050919050565b7f4e487b71000000000000000000000000000000000000000000000000000000005f52600160045260245ffdfea2646970667358221220b1a2b06a3f8ee62caf3ca1d8d78d79d5d36e57291e50d8dd9f6936af2f94a33764736f6c63430008150033",
  "immutableReferences": {},
  "source": "// SPDX-License-Identifier: MIT\r\npragma solidity ^0.8.17;\r\n\r\ncontract AirplaneManagement {\r\n    struct Flight {\r\n        string flightName;\r\n        bool hasDeparted;\r\n    }\r\n\r\n    mapping(uint => Flight) public flights;\r\n\r\n    function scheduleFlight(uint _flightId, string memory _flightName) public {\r\n        require(bytes(_flightName).length > 0, \"Flight name cannot be empty\");\r\n        require(bytes(flights[_flightId].flightName).length == 0, \"Flight already scheduled\");\r\n\r\n        flights[_flightId] = Flight({\r\n            flightName: _flightName,\r\n            hasDeparted: false\r\n        });\r\n    }\r\n\r\n    function departFlight(uint _flightId) public {\r\n        require(!flights[_flightId].hasDeparted, \"Flight has already departed\");\r\n        assert(bytes(flights[_flightId].flightName).length > 0);\r\n\r\n        flights[_flightId].hasDeparted = true;\r\n    }\r\n\r\n    function cancelFlight(uint _flightId) public {\r\n        if (bytes(flights[_flightId].flightName).length == 0) {\r\n            revert(\"Flight does not exist\");\r\n        }\r\n        require(!flights[_flightId].hasDeparted, \"Cannot cancel a departed flight\");\r\n\r\n        delete flights[_flightId];\r\n    }\r\n}\r\n",
  "sourcePath": "C:\\Users\\Mars9\\OneDrive\\Desktop\\ETH+AVAX PROOF Intermediate\\Module-1-Assesment\\contracts\\airplaneManagement.sol",
  "compiler": {
    "name": "solc",
    "version": "0.8.21+commit.d9974bed.Emscripten.clang"
  },
  "schemaVersion": "3.4.16",
  "updatedAt": "2024-06-27T09:07:31.113Z",
  "networkType": "ethereum",
  "devdoc": {
    "kind": "dev",
    "methods": {},
    "version": 1
  },
  "userdoc": {
    "kind": "user",
    "methods": {},
    "version": 1
  }
}