{
  "_format": "hh-sol-artifact-1",
  "contractName": "DegenToken",
  "sourceName": "contracts/DegenToken.sol",
  "abi": [
    {
      "inputs": [],
      "stateMutability": "nonpayable",
      "type": "constructor"
    },
    {
      "anonymous": false,
      "inputs": [
        {
          "indexed": true,
          "internalType": "address",
          "name": "owner",
          "type": "address"
        },
        {
          "indexed": true,
          "internalType": "address",
          "name": "spender",
          "type": "address"
        },
        {
          "indexed": false,
          "internalType": "uint256",
          "name": "value",
          "type": "uint256"
        }
      ],
      "name": "Approval",
      "type": "event"
    },
    {
      "anonymous": false,
      "inputs": [
        {
          "indexed": true,
          "internalType": "address",
          "name": "previousOwner",
          "type": "address"
        },
        {
          "indexed": true,
          "internalType": "address",
          "name": "newOwner",
          "type": "address"
        }
      ],
      "name": "OwnershipTransferred",
      "type": "event"
    },
    {
      "anonymous": false,
      "inputs": [
        {
          "indexed": true,
          "internalType": "address",
          "name": "from",
          "type": "address"
        },
        {
          "indexed": true,
          "internalType": "address",
          "name": "to",
          "type": "address"
        },
        {
          "indexed": false,
          "internalType": "uint256",
          "name": "value",
          "type": "uint256"
        }
      ],
      "name": "Transfer",
      "type": "event"
    },
    {
      "inputs": [
        {
          "internalType": "address",
          "name": "owner",
          "type": "address"
        },
        {
          "internalType": "address",
          "name": "spender",
          "type": "address"
        }
      ],
      "name": "allowance",
      "outputs": [
        {
          "internalType": "uint256",
          "name": "",
          "type": "uint256"
        }
      ],
      "stateMutability": "view",
      "type": "function"
    },
    {
      "inputs": [
        {
          "internalType": "address",
          "name": "spender",
          "type": "address"
        },
        {
          "internalType": "uint256",
          "name": "amount",
          "type": "uint256"
        }
      ],
      "name": "approve",
      "outputs": [
        {
          "internalType": "bool",
          "name": "",
          "type": "bool"
        }
      ],
      "stateMutability": "nonpayable",
      "type": "function"
    },
    {
      "inputs": [
        {
          "internalType": "address",
          "name": "account",
          "type": "address"
        }
      ],
      "name": "balanceOf",
      "outputs": [
        {
          "internalType": "uint256",
          "name": "",
          "type": "uint256"
        }
      ],
      "stateMutability": "view",
      "type": "function"
    },
    {
      "inputs": [
        {
          "internalType": "uint256",
          "name": "amount",
          "type": "uint256"
        }
      ],
      "name": "burnTokens",
      "outputs": [],
      "stateMutability": "nonpayable",
      "type": "function"
    },
    {
      "inputs": [],
      "name": "decimals",
      "outputs": [
        {
          "internalType": "uint8",
          "name": "",
          "type": "uint8"
        }
      ],
      "stateMutability": "view",
      "type": "function"
    },
    {
      "inputs": [
        {
          "internalType": "address",
          "name": "spender",
          "type": "address"
        },
        {
          "internalType": "uint256",
          "name": "subtractedValue",
          "type": "uint256"
        }
      ],
      "name": "decreaseAllowance",
      "outputs": [
        {
          "internalType": "bool",
          "name": "",
          "type": "bool"
        }
      ],
      "stateMutability": "nonpayable",
      "type": "function"
    },
    {
      "inputs": [
        {
          "internalType": "address",
          "name": "account",
          "type": "address"
        }
      ],
      "name": "getBalance",
      "outputs": [
        {
          "internalType": "uint256",
          "name": "",
          "type": "uint256"
        }
      ],
      "stateMutability": "view",
      "type": "function"
    },
    {
      "inputs": [],
      "name": "getStoreItems",
      "outputs": [
        {
          "components": [
            {
              "internalType": "string",
              "name": "itemName",
              "type": "string"
            },
            {
              "internalType": "uint256",
              "name": "cost",
              "type": "uint256"
            }
          ],
          "internalType": "struct DegenToken.StoreItem[]",
          "name": "",
          "type": "tuple[]"
        }
      ],
      "stateMutability": "view",
      "type": "function"
    },
    {
      "inputs": [
        {
          "internalType": "address",
          "name": "player",
          "type": "address"
        }
      ],
      "name": "getUserInventory",
      "outputs": [
        {
          "components": [
            {
              "internalType": "string",
              "name": "itemName",
              "type": "string"
            },
            {
              "internalType": "uint256",
              "name": "quantity",
              "type": "uint256"
            }
          ],
          "internalType": "struct DegenToken.InventoryEntry[]",
          "name": "",
          "type": "tuple[]"
        }
      ],
      "stateMutability": "view",
      "type": "function"
    },
    {
      "inputs": [
        {
          "internalType": "address",
          "name": "spender",
          "type": "address"
        },
        {
          "internalType": "uint256",
          "name": "addedValue",
          "type": "uint256"
        }
      ],
      "name": "increaseAllowance",
      "outputs": [
        {
          "internalType": "bool",
          "name": "",
          "type": "bool"
        }
      ],
      "stateMutability": "nonpayable",
      "type": "function"
    },
    {
      "inputs": [
        {
          "internalType": "address",
          "name": "recipient",
          "type": "address"
        },
        {
          "internalType": "uint256",
          "name": "amount",
          "type": "uint256"
        }
      ],
      "name": "mintTokens",
      "outputs": [],
      "stateMutability": "nonpayable",
      "type": "function"
    },
    {
      "inputs": [],
      "name": "name",
      "outputs": [
        {
          "internalType": "string",
          "name": "",
          "type": "string"
        }
      ],
      "stateMutability": "view",
      "type": "function"
    },
    {
      "inputs": [],
      "name": "owner",
      "outputs": [
        {
          "internalType": "address",
          "name": "",
          "type": "address"
        }
      ],
      "stateMutability": "view",
      "type": "function"
    },
    {
      "inputs": [
        {
          "internalType": "uint256",
          "name": "itemId",
          "type": "uint256"
        }
      ],
      "name": "redeemItem",
      "outputs": [],
      "stateMutability": "nonpayable",
      "type": "function"
    },
    {
      "inputs": [],
      "name": "renounceOwnership",
      "outputs": [],
      "stateMutability": "nonpayable",
      "type": "function"
    },
    {
      "inputs": [
        {
          "internalType": "uint256",
          "name": "",
          "type": "uint256"
        }
      ],
      "name": "store",
      "outputs": [
        {
          "internalType": "string",
          "name": "itemName",
          "type": "string"
        },
        {
          "internalType": "uint256",
          "name": "cost",
          "type": "uint256"
        }
      ],
      "stateMutability": "view",
      "type": "function"
    },
    {
      "inputs": [],
      "name": "symbol",
      "outputs": [
        {
          "internalType": "string",
          "name": "",
          "type": "string"
        }
      ],
      "stateMutability": "view",
      "type": "function"
    },
    {
      "inputs": [],
      "name": "totalSupply",
      "outputs": [
        {
          "internalType": "uint256",
          "name": "",
          "type": "uint256"
        }
      ],
      "stateMutability": "view",
      "type": "function"
    },
    {
      "inputs": [
        {
          "internalType": "address",
          "name": "to",
          "type": "address"
        },
        {
          "internalType": "uint256",
          "name": "amount",
          "type": "uint256"
        }
      ],
      "name": "transfer",
      "outputs": [
        {
          "internalType": "bool",
          "name": "",
          "type": "bool"
        }
      ],
      "stateMutability": "nonpayable",
      "type": "function"
    },
    {
      "inputs": [
        {
          "internalType": "address",
          "name": "from",
          "type": "address"
        },
        {
          "internalType": "address",
          "name": "to",
          "type": "address"
        },
        {
          "internalType": "uint256",
          "name": "amount",
          "type": "uint256"
        }
      ],
      "name": "transferFrom",
      "outputs": [
        {
          "internalType": "bool",
          "name": "",
          "type": "bool"
        }
      ],
      "stateMutability": "nonpayable",
      "type": "function"
    },
    {
      "inputs": [
        {
          "internalType": "address",
          "name": "newOwner",
          "type": "address"
        }
      ],
      "name": "transferOwnership",
      "outputs": [],
      "stateMutability": "nonpayable",
      "type": "function"
    },
    {
      "inputs": [
        {
          "internalType": "address",
          "name": "recipient",
          "type": "address"
        },
        {
          "internalType": "uint256",
          "name": "amount",
          "type": "uint256"
        }
      ],
      "name": "transferTokens",
      "outputs": [
        {
          "internalType": "bool",
          "name": "",
          "type": "bool"
        }
      ],
      "stateMutability": "nonpayable",
      "type": "function"
    },
    {
      "inputs": [
        {
          "internalType": "address",
          "name": "",
          "type": "address"
        },
        {
          "internalType": "uint256",
          "name": "",
          "type": "uint256"
        }
      ],
      "name": "userInventory",
      "outputs": [
        {
          "internalType": "string",
          "name": "itemName",
          "type": "string"
        },
        {
          "internalType": "uint256",
          "name": "quantity",
          "type": "uint256"
        }
      ],
      "stateMutability": "view",
      "type": "function"
    },
    {
      "inputs": [
        {
          "internalType": "address",
          "name": "",
          "type": "address"
        },
        {
          "internalType": "uint256",
          "name": "",
          "type": "uint256"
        }
      ],
      "name": "userInventoryItemIds",
      "outputs": [
        {
          "internalType": "uint256",
          "name": "",
          "type": "uint256"
        }
      ],
      "stateMutability": "view",
      "type": "function"
    }
  ],
  "bytecode": "0x608060405234801562000010575f80fd5b506040518060400160405280600a81526020017f446567656e546f6b656e000000000000000000000000000000000000000000008152506040518060400160405280600381526020017f444754000000000000000000000000000000000000000000000000000000000081525081600390816200008e9190620007ff565b508060049081620000a09190620007ff565b505050620000c3620000b76200035a60201b60201c565b6200036160201b60201c565b6200010033620000d86200042460201b60201c565b600a620000e6919062000a6c565b6064620000f4919062000abc565b6200042c60201b60201c565b600860405180604001604052806040518060400160405280600581526020017f53776f72640000000000000000000000000000000000000000000000000000008152508152602001600a815250908060018154018082558091505060019003905f5260205f2090600202015f909190919091505f820151815f019081620001889190620007ff565b50602082015181600101555050600860405180604001604052806040518060400160405280600681526020017f536869656c64000000000000000000000000000000000000000000000000000081525081526020016014815250908060018154018082558091505060019003905f5260205f2090600202015f909190919091505f820151815f0190816200021d9190620007ff565b50602082015181600101555050600860405180604001604052806040518060400160405280600681526020017f4172726f777300000000000000000000000000000000000000000000000000008152508152602001601e815250908060018154018082558091505060019003905f5260205f2090600202015f909190919091505f820151815f019081620002b29190620007ff565b50602082015181600101555050600860405180604001604052806040518060400160405280600681526020017f48656c6d6574000000000000000000000000000000000000000000000000000081525081526020016028815250908060018154018082558091505060019003905f5260205f2090600202015f909190919091505f820151815f019081620003479190620007ff565b5060208201518160010155505062000bea565b5f33905090565b5f60055f9054906101000a900473ffffffffffffffffffffffffffffffffffffffff1690508160055f6101000a81548173ffffffffffffffffffffffffffffffffffffffff021916908373ffffffffffffffffffffffffffffffffffffffff1602179055508173ffffffffffffffffffffffffffffffffffffffff168173ffffffffffffffffffffffffffffffffffffffff167f8be0079c531659141344cd1fd0a4f28419497f9722a3daafe3b4186f6b6457e060405160405180910390a35050565b5f6012905090565b5f73ffffffffffffffffffffffffffffffffffffffff168273ffffffffffffffffffffffffffffffffffffffff16036200049d576040517f08c379a0000000000000000000000000000000000000000000000000000000008152600401620004949062000b64565b60405180910390fd5b620004b05f83836200059160201b60201c565b8060025f828254620004c3919062000b84565b92505081905550805f808473ffffffffffffffffffffffffffffffffffffffff1673ffffffffffffffffffffffffffffffffffffffff1681526020019081526020015f205f82825401925050819055508173ffffffffffffffffffffffffffffffffffffffff165f73ffffffffffffffffffffffffffffffffffffffff167fddf252ad1be2c89b69c2b068fc378daa952ba7f163c4a11628f55a4df523b3ef8360405162000572919062000bcf565b60405180910390a36200058d5f83836200059660201b60201c565b5050565b505050565b505050565b5f81519050919050565b7f4e487b71000000000000000000000000000000000000000000000000000000005f52604160045260245ffd5b7f4e487b71000000000000000000000000000000000000000000000000000000005f52602260045260245ffd5b5f60028204905060018216806200061757607f821691505b6020821081036200062d576200062c620005d2565b5b50919050565b5f819050815f5260205f209050919050565b5f6020601f8301049050919050565b5f82821b905092915050565b5f60088302620006917fffffffffffffffffffffffffffffffffffffffffffffffffffffffffffffffff8262000654565b6200069d868362000654565b95508019841693508086168417925050509392505050565b5f819050919050565b5f819050919050565b5f620006e7620006e1620006db84620006b5565b620006be565b620006b5565b9050919050565b5f819050919050565b6200070283620006c7565b6200071a6200071182620006ee565b84845462000660565b825550505050565b5f90565b6200073062000722565b6200073d818484620006f7565b505050565b5b818110156200076457620007585f8262000726565b60018101905062000743565b5050565b601f821115620007b3576200077d8162000633565b620007888462000645565b8101602085101562000798578190505b620007b0620007a78562000645565b83018262000742565b50505b505050565b5f82821c905092915050565b5f620007d55f1984600802620007b8565b1980831691505092915050565b5f620007ef8383620007c4565b9150826002028217905092915050565b6200080a826200059b565b67ffffffffffffffff811115620008265762000825620005a5565b5b620008328254620005ff565b6200083f82828562000768565b5f60209050601f83116001811462000875575f841562000860578287015190505b6200086c8582620007e2565b865550620008db565b601f198416620008858662000633565b5f5b82811015620008ae5784890151825560018201915060208501945060208101905062000887565b86831015620008ce5784890151620008ca601f891682620007c4565b8355505b6001600288020188555050505b505050505050565b7f4e487b71000000000000000000000000000000000000000000000000000000005f52601160045260245ffd5b5f8160011c9050919050565b5f808291508390505b60018511156200096d57808604811115620009455762000944620008e3565b5b6001851615620009555780820291505b8081029050620009658562000910565b945062000925565b94509492505050565b5f8262000987576001905062000a59565b8162000996575f905062000a59565b8160018114620009af5760028114620009ba57620009f0565b600191505062000a59565b60ff841115620009cf57620009ce620008e3565b5b8360020a915084821115620009e957620009e8620008e3565b5b5062000a59565b5060208310610133831016604e8410600b841016171562000a2a5782820a90508381111562000a245762000a23620008e3565b5b62000a59565b62000a3984848460016200091c565b9250905081840481111562000a535762000a52620008e3565b5b81810290505b9392505050565b5f60ff82169050919050565b5f62000a7882620006b5565b915062000a858362000a60565b925062000ab47fffffffffffffffffffffffffffffffffffffffffffffffffffffffffffffffff848462000976565b905092915050565b5f62000ac882620006b5565b915062000ad583620006b5565b925082820262000ae581620006b5565b9150828204841483151762000aff5762000afe620008e3565b5b5092915050565b5f82825260208201905092915050565b7f45524332303a206d696e7420746f20746865207a65726f2061646472657373005f82015250565b5f62000b4c601f8362000b06565b915062000b598262000b16565b602082019050919050565b5f6020820190508181035f83015262000b7d8162000b3e565b9050919050565b5f62000b9082620006b5565b915062000b9d83620006b5565b925082820190508082111562000bb85762000bb7620008e3565b5b92915050565b62000bc981620006b5565b82525050565b5f60208201905062000be45f83018462000bbe565b92915050565b612d978062000bf85f395ff3fe608060405234801561000f575f80fd5b5060043610610156575f3560e01c80636d1b229d116100c1578063a9059cbb1161007a578063a9059cbb14610402578063bec3fa1714610432578063dd62ed3e14610462578063f0dda65c14610492578063f2fde38b146104ae578063f8b2cb4f146104ca57610156565b80636d1b229d1461034057806370a082311461035c578063715018a61461038c5780638da5cb5b1461039657806395d89b41146103b4578063a457c2d7146103d257610156565b80632d9088bd116101135780632d9088bd14610242578063313ce56714610260578063395093511461027e5780635714cc8e146102ae5780635c0529a3146102de5780636057361d1461030f57610156565b806306fdde031461015a578063095ea7b31461017857806318160ddd146101a85780631c26dc23146101c657806323b872dd146101e25780632ce5e60114610212575b5f80fd5b6101626104fa565b60405161016f9190611a69565b60405180910390f35b610192600480360381019061018d9190611b1a565b61058a565b60405161019f9190611b72565b60405180910390f35b6101b06105ac565b6040516101bd9190611b9a565b60405180910390f35b6101e060048036038101906101db9190611bb3565b6105b5565b005b6101fc60048036038101906101f79190611bde565b6107e2565b6040516102099190611b72565b60405180910390f35b61022c60048036038101906102279190611b1a565b610810565b6040516102399190611b9a565b60405180910390f35b61024a61083b565b6040516102579190611d7a565b60405180910390f35b610268610930565b6040516102759190611db5565b60405180910390f35b61029860048036038101906102939190611b1a565b610938565b6040516102a59190611b72565b60405180910390f35b6102c860048036038101906102c39190611dce565b61096e565b6040516102d59190611eee565b60405180910390f35b6102f860048036038101906102f39190611b1a565b610b66565b604051610306929190611f0e565b60405180910390f35b61032960048036038101906103249190611bb3565b610c17565b604051610337929190611f0e565b60405180910390f35b61035a60048036038101906103559190611bb3565b610ccc565b005b61037660048036038101906103719190611dce565b610d60565b6040516103839190611b9a565b60405180910390f35b610394610da5565b005b61039e610db8565b6040516103ab9190611f4b565b60405180910390f35b6103bc610de0565b6040516103c99190611a69565b60405180910390f35b6103ec60048036038101906103e79190611b1a565b610e70565b6040516103f99190611b72565b60405180910390f35b61041c60048036038101906104179190611b1a565b610ee5565b6040516104299190611b72565b60405180910390f35b61044c60048036038101906104479190611b1a565b610f07565b6040516104599190611b72565b60405180910390f35b61047c60048036038101906104779190611f64565b610f42565b6040516104899190611b9a565b60405180910390f35b6104ac60048036038101906104a79190611b1a565b610fc4565b005b6104c860048036038101906104c39190611dce565b610ff8565b005b6104e460048036038101906104df9190611dce565b61107a565b6040516104f19190611b9a565b60405180910390f35b60606003805461050990611fcf565b80601f016020809104026020016040519081016040528092919081815260200182805461053590611fcf565b80156105805780601f1061055757610100808354040283529160200191610580565b820191905f5260205f20905b81548152906001019060200180831161056357829003601f168201915b5050505050905090565b5f806105946110a9565b90506105a18185856110b0565b600191505092915050565b5f600254905090565b6008805490506001826105c8919061202c565b10610608576040517f08c379a00000000000000000000000000000000000000000000000000000000081526004016105ff906120a9565b60405180910390fd5b5f6008600183610618919061202c565b81548110610629576106286120c7565b5b905f5260205f209060020201905061063f610930565b600a61064b9190612223565b816001015461065a919061226d565b61066333610d60565b10156106a4576040517f08c379a000000000000000000000000000000000000000000000000000000000815260040161069b906122f8565b60405180910390fd5b6106d0336106b0610930565b600a6106bc9190612223565b83600101546106cb919061226d565b611273565b5f60065f3373ffffffffffffffffffffffffffffffffffffffff1673ffffffffffffffffffffffffffffffffffffffff1681526020019081526020015f205f60018561071c919061202c565b81526020019081526020015f2090505f815f01805461073a90611fcf565b9050036107c257815f01815f0190816107539190612507565b5060075f3373ffffffffffffffffffffffffffffffffffffffff1673ffffffffffffffffffffffffffffffffffffffff1681526020019081526020015f2060018461079e919061202c565b908060018154018082558091505060019003905f5260205f20015f90919091909150555b6001816001015f8282546107d691906125ec565b92505081905550505050565b5f806107ec6110a9565b90506107f9858285611436565b6108048585856114c1565b60019150509392505050565b6007602052815f5260405f208181548110610829575f80fd5b905f5260205f20015f91509150505481565b60606008805480602002602001604051908101604052809291908181526020015f905b82821015610927578382905f5260205f2090600202016040518060400160405290815f8201805461088e90611fcf565b80601f01602080910402602001604051908101604052809291908181526020018280546108ba90611fcf565b80156109055780601f106108dc57610100808354040283529160200191610905565b820191905f5260205f20905b8154815290600101906020018083116108e857829003601f168201915b505050505081526020016001820154815250508152602001906001019061085e565b50505050905090565b5f6012905090565b5f806109426110a9565b90506109638185856109548589610f42565b61095e91906125ec565b6110b0565b600191505092915050565b60605f60075f8473ffffffffffffffffffffffffffffffffffffffff1673ffffffffffffffffffffffffffffffffffffffff1681526020019081526020015f2090505f818054905090505f8167ffffffffffffffff8111156109d3576109d261232b565b5b604051908082528060200260200182016040528015610a0c57816020015b6109f96119c6565b8152602001906001900390816109f15790505b5090505f5b82811015610b5a575f848281548110610a2d57610a2c6120c7565b5b905f5260205f200154905060065f8873ffffffffffffffffffffffffffffffffffffffff1673ffffffffffffffffffffffffffffffffffffffff1681526020019081526020015f205f8281526020019081526020015f206040518060400160405290815f82018054610a9e90611fcf565b80601f0160208091040260200160405190810160405280929190818152602001828054610aca90611fcf565b8015610b155780601f10610aec57610100808354040283529160200191610b15565b820191905f5260205f20905b815481529060010190602001808311610af857829003601f168201915b50505050508152602001600182015481525050838381518110610b3b57610b3a6120c7565b5b6020026020010181905250508080610b529061261f565b915050610a11565b50809350505050919050565b6006602052815f5260405f20602052805f5260405f205f9150915050805f018054610b9090611fcf565b80601f0160208091040260200160405190810160405280929190818152602001828054610bbc90611fcf565b8015610c075780601f10610bde57610100808354040283529160200191610c07565b820191905f5260205f20905b815481529060010190602001808311610bea57829003601f168201915b5050505050908060010154905082565b60088181548110610c26575f80fd5b905f5260205f2090600202015f91509050805f018054610c4590611fcf565b80601f0160208091040260200160405190810160405280929190818152602001828054610c7190611fcf565b8015610cbc5780601f10610c9357610100808354040283529160200191610cbc565b820191905f5260205f20905b815481529060010190602001808311610c9f57829003601f168201915b5050505050908060010154905082565b610cd4610930565b600a610ce09190612223565b81610ceb919061226d565b610cf433610d60565b1015610d35576040517f08c379a0000000000000000000000000000000000000000000000000000000008152600401610d2c906126b0565b60405180910390fd5b610d5d33610d41610930565b600a610d4d9190612223565b83610d58919061226d565b611273565b50565b5f805f8373ffffffffffffffffffffffffffffffffffffffff1673ffffffffffffffffffffffffffffffffffffffff1681526020019081526020015f20549050919050565b610dad61172d565b610db65f6117ab565b565b5f60055f9054906101000a900473ffffffffffffffffffffffffffffffffffffffff16905090565b606060048054610def90611fcf565b80601f0160208091040260200160405190810160405280929190818152602001828054610e1b90611fcf565b8015610e665780601f10610e3d57610100808354040283529160200191610e66565b820191905f5260205f20905b815481529060010190602001808311610e4957829003601f168201915b5050505050905090565b5f80610e7a6110a9565b90505f610e878286610f42565b905083811015610ecc576040517f08c379a0000000000000000000000000000000000000000000000000000000008152600401610ec39061273e565b60405180910390fd5b610ed982868684036110b0565b60019250505092915050565b5f80610eef6110a9565b9050610efc8185856114c1565b600191505092915050565b5f610f38610f136110a9565b84610f1c610930565b600a610f289190612223565b85610f33919061226d565b6114c1565b6001905092915050565b5f60015f8473ffffffffffffffffffffffffffffffffffffffff1673ffffffffffffffffffffffffffffffffffffffff1681526020019081526020015f205f8373ffffffffffffffffffffffffffffffffffffffff1673ffffffffffffffffffffffffffffffffffffffff1681526020019081526020015f2054905092915050565b610fcc61172d565b610ff482610fd8610930565b600a610fe49190612223565b83610fef919061226d565b61186e565b5050565b61100061172d565b5f73ffffffffffffffffffffffffffffffffffffffff168173ffffffffffffffffffffffffffffffffffffffff160361106e576040517f08c379a0000000000000000000000000000000000000000000000000000000008152600401611065906127cc565b60405180910390fd5b611077816117ab565b50565b5f611083610930565b600a61108f9190612223565b61109883610d60565b6110a29190612817565b9050919050565b5f33905090565b5f73ffffffffffffffffffffffffffffffffffffffff168373ffffffffffffffffffffffffffffffffffffffff160361111e576040517f08c379a0000000000000000000000000000000000000000000000000000000008152600401611115906128b7565b60405180910390fd5b5f73ffffffffffffffffffffffffffffffffffffffff168273ffffffffffffffffffffffffffffffffffffffff160361118c576040517f08c379a000000000000000000000000000000000000000000000000000000000815260040161118390612945565b60405180910390fd5b8060015f8573ffffffffffffffffffffffffffffffffffffffff1673ffffffffffffffffffffffffffffffffffffffff1681526020019081526020015f205f8473ffffffffffffffffffffffffffffffffffffffff1673ffffffffffffffffffffffffffffffffffffffff1681526020019081526020015f20819055508173ffffffffffffffffffffffffffffffffffffffff168373ffffffffffffffffffffffffffffffffffffffff167f8c5be1e5ebec7d5bd14f71427d1e84f3dd0314c0f7b2291e5b200ac8c7c3b925836040516112669190611b9a565b60405180910390a3505050565b5f73ffffffffffffffffffffffffffffffffffffffff168273ffffffffffffffffffffffffffffffffffffffff16036112e1576040517f08c379a00000000000000000000000000000000000000000000000000000000081526004016112d8906129d3565b60405180910390fd5b6112ec825f836119bc565b5f805f8473ffffffffffffffffffffffffffffffffffffffff1673ffffffffffffffffffffffffffffffffffffffff1681526020019081526020015f205490508181101561136f576040517f08c379a000000000000000000000000000000000000000000000000000000000815260040161136690612a61565b60405180910390fd5b8181035f808573ffffffffffffffffffffffffffffffffffffffff1673ffffffffffffffffffffffffffffffffffffffff1681526020019081526020015f20819055508160025f82825403925050819055505f73ffffffffffffffffffffffffffffffffffffffff168373ffffffffffffffffffffffffffffffffffffffff167fddf252ad1be2c89b69c2b068fc378daa952ba7f163c4a11628f55a4df523b3ef8460405161141e9190611b9a565b60405180910390a3611431835f846119c1565b505050565b5f6114418484610f42565b90507fffffffffffffffffffffffffffffffffffffffffffffffffffffffffffffffff81146114bb57818110156114ad576040517f08c379a00000000000000000000000000000000000000000000000000000000081526004016114a490612ac9565b60405180910390fd5b6114ba84848484036110b0565b5b50505050565b5f73ffffffffffffffffffffffffffffffffffffffff168373ffffffffffffffffffffffffffffffffffffffff160361152f576040517f08c379a000000000000000000000000000000000000000000000000000000000815260040161152690612b57565b60405180910390fd5b5f73ffffffffffffffffffffffffffffffffffffffff168273ffffffffffffffffffffffffffffffffffffffff160361159d576040517f08c379a000000000000000000000000000000000000000000000000000000000815260040161159490612be5565b60405180910390fd5b6115a88383836119bc565b5f805f8573ffffffffffffffffffffffffffffffffffffffff1673ffffffffffffffffffffffffffffffffffffffff1681526020019081526020015f205490508181101561162b576040517f08c379a000000000000000000000000000000000000000000000000000000000815260040161162290612c73565b60405180910390fd5b8181035f808673ffffffffffffffffffffffffffffffffffffffff1673ffffffffffffffffffffffffffffffffffffffff1681526020019081526020015f2081905550815f808573ffffffffffffffffffffffffffffffffffffffff1673ffffffffffffffffffffffffffffffffffffffff1681526020019081526020015f205f82825401925050819055508273ffffffffffffffffffffffffffffffffffffffff168473ffffffffffffffffffffffffffffffffffffffff167fddf252ad1be2c89b69c2b068fc378daa952ba7f163c4a11628f55a4df523b3ef846040516117149190611b9a565b60405180910390a36117278484846119c1565b50505050565b6117356110a9565b73ffffffffffffffffffffffffffffffffffffffff16611753610db8565b73ffffffffffffffffffffffffffffffffffffffff16146117a9576040517f08c379a00000000000000000000000000000000000000000000000000000000081526004016117a090612cdb565b60405180910390fd5b565b5f60055f9054906101000a900473ffffffffffffffffffffffffffffffffffffffff1690508160055f6101000a81548173ffffffffffffffffffffffffffffffffffffffff021916908373ffffffffffffffffffffffffffffffffffffffff1602179055508173ffffffffffffffffffffffffffffffffffffffff168173ffffffffffffffffffffffffffffffffffffffff167f8be0079c531659141344cd1fd0a4f28419497f9722a3daafe3b4186f6b6457e060405160405180910390a35050565b5f73ffffffffffffffffffffffffffffffffffffffff168273ffffffffffffffffffffffffffffffffffffffff16036118dc576040517f08c379a00000000000000000000000000000000000000000000000000000000081526004016118d390612d43565b60405180910390fd5b6118e75f83836119bc565b8060025f8282546118f891906125ec565b92505081905550805f808473ffffffffffffffffffffffffffffffffffffffff1673ffffffffffffffffffffffffffffffffffffffff1681526020019081526020015f205f82825401925050819055508173ffffffffffffffffffffffffffffffffffffffff165f73ffffffffffffffffffffffffffffffffffffffff167fddf252ad1be2c89b69c2b068fc378daa952ba7f163c4a11628f55a4df523b3ef836040516119a59190611b9a565b60405180910390a36119b85f83836119c1565b5050565b505050565b505050565b6040518060400160405280606081526020015f81525090565b5f81519050919050565b5f82825260208201905092915050565b5f5b83811015611a165780820151818401526020810190506119fb565b5f8484015250505050565b5f601f19601f8301169050919050565b5f611a3b826119df565b611a4581856119e9565b9350611a558185602086016119f9565b611a5e81611a21565b840191505092915050565b5f6020820190508181035f830152611a818184611a31565b905092915050565b5f80fd5b5f73ffffffffffffffffffffffffffffffffffffffff82169050919050565b5f611ab682611a8d565b9050919050565b611ac681611aac565b8114611ad0575f80fd5b50565b5f81359050611ae181611abd565b92915050565b5f819050919050565b611af981611ae7565b8114611b03575f80fd5b50565b5f81359050611b1481611af0565b92915050565b5f8060408385031215611b3057611b2f611a89565b5b5f611b3d85828601611ad3565b9250506020611b4e85828601611b06565b9150509250929050565b5f8115159050919050565b611b6c81611b58565b82525050565b5f602082019050611b855f830184611b63565b92915050565b611b9481611ae7565b82525050565b5f602082019050611bad5f830184611b8b565b92915050565b5f60208284031215611bc857611bc7611a89565b5b5f611bd584828501611b06565b91505092915050565b5f805f60608486031215611bf557611bf4611a89565b5b5f611c0286828701611ad3565b9350506020611c1386828701611ad3565b9250506040611c2486828701611b06565b9150509250925092565b5f81519050919050565b5f82825260208201905092915050565b5f819050602082019050919050565b5f82825260208201905092915050565b5f611c71826119df565b611c7b8185611c57565b9350611c8b8185602086016119f9565b611c9481611a21565b840191505092915050565b611ca881611ae7565b82525050565b5f604083015f8301518482035f860152611cc88282611c67565b9150506020830151611cdd6020860182611c9f565b508091505092915050565b5f611cf38383611cae565b905092915050565b5f602082019050919050565b5f611d1182611c2e565b611d1b8185611c38565b935083602082028501611d2d85611c48565b805f5b85811015611d685784840389528151611d498582611ce8565b9450611d5483611cfb565b925060208a01995050600181019050611d30565b50829750879550505050505092915050565b5f6020820190508181035f830152611d928184611d07565b905092915050565b5f60ff82169050919050565b611daf81611d9a565b82525050565b5f602082019050611dc85f830184611da6565b92915050565b5f60208284031215611de357611de2611a89565b5b5f611df084828501611ad3565b91505092915050565b5f81519050919050565b5f82825260208201905092915050565b5f819050602082019050919050565b5f604083015f8301518482035f860152611e3c8282611c67565b9150506020830151611e516020860182611c9f565b508091505092915050565b5f611e678383611e22565b905092915050565b5f602082019050919050565b5f611e8582611df9565b611e8f8185611e03565b935083602082028501611ea185611e13565b805f5b85811015611edc5784840389528151611ebd8582611e5c565b9450611ec883611e6f565b925060208a01995050600181019050611ea4565b50829750879550505050505092915050565b5f6020820190508181035f830152611f068184611e7b565b905092915050565b5f6040820190508181035f830152611f268185611a31565b9050611f356020830184611b8b565b9392505050565b611f4581611aac565b82525050565b5f602082019050611f5e5f830184611f3c565b92915050565b5f8060408385031215611f7a57611f79611a89565b5b5f611f8785828601611ad3565b9250506020611f9885828601611ad3565b9150509250929050565b7f4e487b71000000000000000000000000000000000000000000000000000000005f52602260045260245ffd5b5f6002820490506001821680611fe657607f821691505b602082108103611ff957611ff8611fa2565b5b50919050565b7f4e487b71000000000000000000000000000000000000000000000000000000005f52601160045260245ffd5b5f61203682611ae7565b915061204183611ae7565b925082820390508181111561205957612058611fff565b5b92915050565b7f496e76616c6964206974656d20494400000000000000000000000000000000005f82015250565b5f612093600f836119e9565b915061209e8261205f565b602082019050919050565b5f6020820190508181035f8301526120c081612087565b9050919050565b7f4e487b71000000000000000000000000000000000000000000000000000000005f52603260045260245ffd5b5f8160011c9050919050565b5f808291508390505b60018511156121495780860481111561212557612124611fff565b5b60018516156121345780820291505b8081029050612142856120f4565b9450612109565b94509492505050565b5f82612161576001905061221c565b8161216e575f905061221c565b8160018114612184576002811461218e576121bd565b600191505061221c565b60ff8411156121a05761219f611fff565b5b8360020a9150848211156121b7576121b6611fff565b5b5061221c565b5060208310610133831016604e8410600b84101617156121f25782820a9050838111156121ed576121ec611fff565b5b61221c565b6121ff8484846001612100565b9250905081840481111561221657612215611fff565b5b81810290505b9392505050565b5f61222d82611ae7565b915061223883611d9a565b92506122657fffffffffffffffffffffffffffffffffffffffffffffffffffffffffffffffff8484612152565b905092915050565b5f61227782611ae7565b915061228283611ae7565b925082820261229081611ae7565b915082820484148315176122a7576122a6611fff565b5b5092915050565b7f496e73756666696369656e7420746f6b656e73000000000000000000000000005f82015250565b5f6122e26013836119e9565b91506122ed826122ae565b602082019050919050565b5f6020820190508181035f83015261230f816122d6565b9050919050565b5f8154905061232481611fcf565b9050919050565b7f4e487b71000000000000000000000000000000000000000000000000000000005f52604160045260245ffd5b5f819050815f5260205f209050919050565b5f819050815f5260205f209050919050565b5f6020601f8301049050919050565b5f82821b905092915050565b5f600883026123c67fffffffffffffffffffffffffffffffffffffffffffffffffffffffffffffffff8261238b565b6123d0868361238b565b95508019841693508086168417925050509392505050565b5f819050919050565b5f61240b61240661240184611ae7565b6123e8565b611ae7565b9050919050565b5f819050919050565b612424836123f1565b61243861243082612412565b848454612397565b825550505050565b5f90565b61244c612440565b61245781848461241b565b505050565b5b8181101561247a5761246f5f82612444565b60018101905061245d565b5050565b601f8211156124bf5761249081612358565b6124998461237c565b810160208510156124a8578190505b6124bc6124b48561237c565b83018261245c565b50505b505050565b5f82821c905092915050565b5f6124df5f19846008026124c4565b1980831691505092915050565b5f6124f783836124d0565b9150826002028217905092915050565b8181036125155750506125ea565b61251e82612316565b67ffffffffffffffff8111156125375761253661232b565b5b6125418254611fcf565b61254c82828561247e565b5f601f831160018114612579575f8415612567578287015490505b61257185826124ec565b8655506125e3565b601f1984166125878761236a565b965061259286612358565b5f5b828110156125b957848901548255600182019150600185019450602081019050612594565b868310156125d657848901546125d2601f8916826124d0565b8355505b6001600288020188555050505b5050505050505b565b5f6125f682611ae7565b915061260183611ae7565b925082820190508082111561261957612618611fff565b5b92915050565b5f61262982611ae7565b91507fffffffffffffffffffffffffffffffffffffffffffffffffffffffffffffffff820361265b5761265a611fff565b5b600182019050919050565b7f496e73756666696369656e742062616c616e63650000000000000000000000005f82015250565b5f61269a6014836119e9565b91506126a582612666565b602082019050919050565b5f6020820190508181035f8301526126c78161268e565b9050919050565b7f45524332303a2064656372656173656420616c6c6f77616e63652062656c6f775f8201527f207a65726f000000000000000000000000000000000000000000000000000000602082015250565b5f6127286025836119e9565b9150612733826126ce565b604082019050919050565b5f6020820190508181035f8301526127558161271c565b9050919050565b7f4f776e61626c653a206e6577206f776e657220697320746865207a65726f20615f8201527f6464726573730000000000000000000000000000000000000000000000000000602082015250565b5f6127b66026836119e9565b91506127c18261275c565b604082019050919050565b5f6020820190508181035f8301526127e3816127aa565b9050919050565b7f4e487b71000000000000000000000000000000000000000000000000000000005f52601260045260245ffd5b5f61282182611ae7565b915061282c83611ae7565b92508261283c5761283b6127ea565b5b828204905092915050565b7f45524332303a20617070726f76652066726f6d20746865207a65726f206164645f8201527f7265737300000000000000000000000000000000000000000000000000000000602082015250565b5f6128a16024836119e9565b91506128ac82612847565b604082019050919050565b5f6020820190508181035f8301526128ce81612895565b9050919050565b7f45524332303a20617070726f766520746f20746865207a65726f2061646472655f8201527f7373000000000000000000000000000000000000000000000000000000000000602082015250565b5f61292f6022836119e9565b915061293a826128d5565b604082019050919050565b5f6020820190508181035f83015261295c81612923565b9050919050565b7f45524332303a206275726e2066726f6d20746865207a65726f206164647265735f8201527f7300000000000000000000000000000000000000000000000000000000000000602082015250565b5f6129bd6021836119e9565b91506129c882612963565b604082019050919050565b5f6020820190508181035f8301526129ea816129b1565b9050919050565b7f45524332303a206275726e20616d6f756e7420657863656564732062616c616e5f8201527f6365000000000000000000000000000000000000000000000000000000000000602082015250565b5f612a4b6022836119e9565b9150612a56826129f1565b604082019050919050565b5f6020820190508181035f830152612a7881612a3f565b9050919050565b7f45524332303a20696e73756666696369656e7420616c6c6f77616e63650000005f82015250565b5f612ab3601d836119e9565b9150612abe82612a7f565b602082019050919050565b5f6020820190508181035f830152612ae081612aa7565b9050919050565b7f45524332303a207472616e736665722066726f6d20746865207a65726f2061645f8201527f6472657373000000000000000000000000000000000000000000000000000000602082015250565b5f612b416025836119e9565b9150612b4c82612ae7565b604082019050919050565b5f6020820190508181035f830152612b6e81612b35565b9050919050565b7f45524332303a207472616e7366657220746f20746865207a65726f20616464725f8201527f6573730000000000000000000000000000000000000000000000000000000000602082015250565b5f612bcf6023836119e9565b9150612bda82612b75565b604082019050919050565b5f6020820190508181035f830152612bfc81612bc3565b9050919050565b7f45524332303a207472616e7366657220616d6f756e74206578636565647320625f8201527f616c616e63650000000000000000000000000000000000000000000000000000602082015250565b5f612c5d6026836119e9565b9150612c6882612c03565b604082019050919050565b5f6020820190508181035f830152612c8a81612c51565b9050919050565b7f4f776e61626c653a2063616c6c6572206973206e6f7420746865206f776e65725f82015250565b5f612cc56020836119e9565b9150612cd082612c91565b602082019050919050565b5f6020820190508181035f830152612cf281612cb9565b9050919050565b7f45524332303a206d696e7420746f20746865207a65726f2061646472657373005f82015250565b5f612d2d601f836119e9565b9150612d3882612cf9565b602082019050919050565b5f6020820190508181035f830152612d5a81612d21565b905091905056fea2646970667358221220178496176428147f6b0608a16700ae9301130b3063d00b7c1a105f5365ffcf2f64736f6c63430008140033",
  "linkReferences": {},
  "deployedLinkReferences": {}
}